{
  "_format": "hh-sol-artifact-1",
  "contractName": "TrainingReward",
  "sourceName": "contracts/TrainingReward.sol",
  "abi": [
    {
      "inputs": [
        {
          "internalType": "address[]",
          "name": "_workers",
          "type": "address[]"
        },
        {
          "internalType": "bytes32",
          "name": "_merkleRoot",
          "type": "bytes32"
        },
        {
          "internalType": "address",
          "name": "_verifier",
          "type": "address"
        }
      ],
      "stateMutability": "payable",
      "type": "constructor"
    },
    {
      "inputs": [
        {
          "internalType": "uint256[2]",
          "name": "a",
          "type": "uint256[2]"
        },
        {
          "internalType": "uint256[2][2]",
          "name": "b",
          "type": "uint256[2][2]"
        },
        {
          "internalType": "uint256[2]",
          "name": "c",
          "type": "uint256[2]"
        },
        {
          "internalType": "uint256[1]",
          "name": "input",
          "type": "uint256[1]"
        }
      ],
      "name": "claimReward",
      "outputs": [],
      "stateMutability": "nonpayable",
      "type": "function"
    },
    {
      "inputs": [
        {
          "internalType": "address",
          "name": "",
          "type": "address"
        }
      ],
      "name": "hasClaimed",
      "outputs": [
        {
          "internalType": "bool",
          "name": "",
          "type": "bool"
        }
      ],
      "stateMutability": "view",
      "type": "function"
    },
    {
      "inputs": [
        {
          "internalType": "address",
          "name": "user",
          "type": "address"
        }
      ],
      "name": "isWorker",
      "outputs": [
        {
          "internalType": "bool",
          "name": "",
          "type": "bool"
        }
      ],
      "stateMutability": "view",
      "type": "function"
    },
    {
      "inputs": [],
      "name": "merkleRoot",
      "outputs": [
        {
          "internalType": "bytes32",
          "name": "",
          "type": "bytes32"
        }
      ],
      "stateMutability": "view",
      "type": "function"
    },
    {
      "inputs": [],
      "name": "rewardPerWorker",
      "outputs": [
        {
          "internalType": "uint256",
          "name": "",
          "type": "uint256"
        }
      ],
      "stateMutability": "view",
      "type": "function"
    },
    {
      "inputs": [],
      "name": "verifier",
      "outputs": [
        {
          "internalType": "contract IVerifier",
          "name": "",
          "type": "address"
        }
      ],
      "stateMutability": "view",
      "type": "function"
    },
    {
      "inputs": [
        {
          "internalType": "uint256",
          "name": "",
          "type": "uint256"
        }
      ],
      "name": "workers",
      "outputs": [
        {
          "internalType": "address",
          "name": "",
          "type": "address"
        }
      ],
      "stateMutability": "view",
      "type": "function"
    }
  ],
  "bytecode": "0x608060405260405161155b38038061155b833981810160405281019061002591906103ce565b6003835114610069576040517f08c379a00000000000000000000000000000000000000000000000000000000081526004016100609061049a565b60405180910390fd5b600034116100ac576040517f08c379a00000000000000000000000000000000000000000000000000000000081526004016100a390610506565b60405180910390fd5b82600090805190602001906100c2929190610126565b508160028190555080600460006101000a81548173ffffffffffffffffffffffffffffffffffffffff021916908373ffffffffffffffffffffffffffffffffffffffff160217905550825134610118919061055f565b600381905550505050610590565b82805482825590600052602060002090810192821561019f579160200282015b8281111561019e5782518260006101000a81548173ffffffffffffffffffffffffffffffffffffffff021916908373ffffffffffffffffffffffffffffffffffffffff16021790555091602001919060010190610146565b5b5090506101ac91906101b0565b5090565b5b808211156101c95760008160009055506001016101b1565b5090565b6000604051905090565b600080fd5b600080fd5b600080fd5b6000601f19601f8301169050919050565b7f4e487b7100000000000000000000000000000000000000000000000000000000600052604160045260246000fd5b61022f826101e6565b810181811067ffffffffffffffff8211171561024e5761024d6101f7565b5b80604052505050565b60006102616101cd565b905061026d8282610226565b919050565b600067ffffffffffffffff82111561028d5761028c6101f7565b5b602082029050602081019050919050565b600080fd5b600073ffffffffffffffffffffffffffffffffffffffff82169050919050565b60006102ce826102a3565b9050919050565b6102de816102c3565b81146102e957600080fd5b50565b6000815190506102fb816102d5565b92915050565b600061031461030f84610272565b610257565b905080838252602082019050602084028301858111156103375761033661029e565b5b835b81811015610360578061034c88826102ec565b845260208401935050602081019050610339565b5050509392505050565b600082601f83011261037f5761037e6101e1565b5b815161038f848260208601610301565b91505092915050565b6000819050919050565b6103ab81610398565b81146103b657600080fd5b50565b6000815190506103c8816103a2565b92915050565b6000806000606084860312156103e7576103e66101d7565b5b600084015167ffffffffffffffff811115610405576104046101dc565b5b6104118682870161036a565b9350506020610422868287016103b9565b9250506040610433868287016102ec565b9150509250925092565b600082825260208201905092915050565b7f526571756972652065786163746c79203320776f726b65727300000000000000600082015250565b600061048460198361043d565b915061048f8261044e565b602082019050919050565b600060208201905081810360008301526104b381610477565b9050919050565b7f526577617264206d7573742062652066756e6465640000000000000000000000600082015250565b60006104f060158361043d565b91506104fb826104ba565b602082019050919050565b6000602082019050818103600083015261051f816104e3565b9050919050565b6000819050919050565b7f4e487b7100000000000000000000000000000000000000000000000000000000600052601260045260246000fd5b600061056a82610526565b915061057583610526565b92508261058557610584610530565b5b828204905092915050565b610fbc8061059f6000396000f3fe608060405234801561001057600080fd5b506004361061007d5760003560e01c80632eb4a7ab1161005b5780632eb4a7ab146100da57806373b2e80e146100f8578063aa15664514610128578063f1a22dc2146101585761007d565b80631494f72b1461008257806321f4dd33146100a05780632b7ac3f3146100bc575b600080fd5b61008a610188565b604051610097919061059b565b60405180910390f35b6100ba60048036038101906100b5919061089a565b61018e565b005b6100c461044f565b6040516100d19190610982565b60405180910390f35b6100e2610475565b6040516100ef91906109b6565b60405180910390f35b610112600480360381019061010d9190610a0f565b61047b565b60405161011f9190610a57565b60405180910390f35b610142600480360381019061013d9190610a0f565b61049b565b60405161014f9190610a57565b60405180910390f35b610172600480360381019061016d9190610a72565b610543565b60405161017f9190610aae565b60405180910390f35b60035481565b6101973361049b565b6101d6576040517f08c379a00000000000000000000000000000000000000000000000000000000081526004016101cd90610b26565b60405180910390fd5b600160003373ffffffffffffffffffffffffffffffffffffffff1673ffffffffffffffffffffffffffffffffffffffff16815260200190815260200160002060009054906101000a900460ff1615610263576040517f08c379a000000000000000000000000000000000000000000000000000000000815260040161025a90610b92565b60405180910390fd5b6002548160006001811061027a57610279610bb2565b5b602002015160001b146102c2576040517f08c379a00000000000000000000000000000000000000000000000000000000081526004016102b990610c2d565b60405180910390fd5b6000600460009054906101000a900473ffffffffffffffffffffffffffffffffffffffff1673ffffffffffffffffffffffffffffffffffffffff166343753b4d868686866040518563ffffffff1660e01b81526004016103259493929190610e7a565b602060405180830381865afa158015610342573d6000803e3d6000fd5b505050506040513d601f19601f820116820180604052508101906103669190610eed565b9050806103a8576040517f08c379a000000000000000000000000000000000000000000000000000000000815260040161039f90610f66565b60405180910390fd5b60018060003373ffffffffffffffffffffffffffffffffffffffff1673ffffffffffffffffffffffffffffffffffffffff16815260200190815260200160002060006101000a81548160ff0219169083151502179055503373ffffffffffffffffffffffffffffffffffffffff166108fc6003549081150290604051600060405180830381858888f19350505050158015610447573d6000803e3d6000fd5b505050505050565b600460009054906101000a900473ffffffffffffffffffffffffffffffffffffffff1681565b60025481565b60016020528060005260406000206000915054906101000a900460ff1681565b600080600090505b600080549050811015610538578273ffffffffffffffffffffffffffffffffffffffff16600082815481106104db576104da610bb2565b5b9060005260206000200160009054906101000a900473ffffffffffffffffffffffffffffffffffffffff1673ffffffffffffffffffffffffffffffffffffffff160361052b57600191505061053e565b80806001019150506104a3565b50600090505b919050565b6000818154811061055357600080fd5b906000526020600020016000915054906101000a900473ffffffffffffffffffffffffffffffffffffffff1681565b6000819050919050565b61059581610582565b82525050565b60006020820190506105b0600083018461058c565b92915050565b6000604051905090565b600080fd5b600080fd5b6000601f19601f8301169050919050565b7f4e487b7100000000000000000000000000000000000000000000000000000000600052604160045260246000fd5b610613826105ca565b810181811067ffffffffffffffff82111715610632576106316105db565b5b80604052505050565b60006106456105b6565b9050610651828261060a565b919050565b600067ffffffffffffffff821115610671576106706105db565b5b602082029050919050565b600080fd5b61068a81610582565b811461069557600080fd5b50565b6000813590506106a781610681565b92915050565b60006106c06106bb84610656565b61063b565b905080602084028301858111156106da576106d961067c565b5b835b8181101561070357806106ef8882610698565b8452602084019350506020810190506106dc565b5050509392505050565b600082601f830112610722576107216105c5565b5b600261072f8482856106ad565b91505092915050565b600067ffffffffffffffff821115610753576107526105db565b5b602082029050919050565b600061077161076c84610738565b61063b565b9050806040840283018581111561078b5761078a61067c565b5b835b818110156107b457806107a0888261070d565b84526020840193505060408101905061078d565b5050509392505050565b600082601f8301126107d3576107d26105c5565b5b60026107e084828561075e565b91505092915050565b600067ffffffffffffffff821115610804576108036105db565b5b602082029050919050565b600061082261081d846107e9565b61063b565b9050806020840283018581111561083c5761083b61067c565b5b835b8181101561086557806108518882610698565b84526020840193505060208101905061083e565b5050509392505050565b600082601f830112610884576108836105c5565b5b600161089184828561080f565b91505092915050565b60008060008061012085870312156108b5576108b46105c0565b5b60006108c38782880161070d565b94505060406108d4878288016107be565b93505060c06108e58782880161070d565b9250506101006108f78782880161086f565b91505092959194509250565b600073ffffffffffffffffffffffffffffffffffffffff82169050919050565b6000819050919050565b600061094861094361093e84610903565b610923565b610903565b9050919050565b600061095a8261092d565b9050919050565b600061096c8261094f565b9050919050565b61097c81610961565b82525050565b60006020820190506109976000830184610973565b92915050565b6000819050919050565b6109b08161099d565b82525050565b60006020820190506109cb60008301846109a7565b92915050565b60006109dc82610903565b9050919050565b6109ec816109d1565b81146109f757600080fd5b50565b600081359050610a09816109e3565b92915050565b600060208284031215610a2557610a246105c0565b5b6000610a33848285016109fa565b91505092915050565b60008115159050919050565b610a5181610a3c565b82525050565b6000602082019050610a6c6000830184610a48565b92915050565b600060208284031215610a8857610a876105c0565b5b6000610a9684828501610698565b91505092915050565b610aa8816109d1565b82525050565b6000602082019050610ac36000830184610a9f565b92915050565b600082825260208201905092915050565b7f4e6f7420617574686f72697a656420776f726b65720000000000000000000000600082015250565b6000610b10601583610ac9565b9150610b1b82610ada565b602082019050919050565b60006020820190508181036000830152610b3f81610b03565b9050919050565b7f416c726561647920636c61696d65640000000000000000000000000000000000600082015250565b6000610b7c600f83610ac9565b9150610b8782610b46565b602082019050919050565b60006020820190508181036000830152610bab81610b6f565b9050919050565b7f4e487b7100000000000000000000000000000000000000000000000000000000600052603260045260246000fd5b7f526f6f74206d69736d6174636800000000000000000000000000000000000000600082015250565b6000610c17600d83610ac9565b9150610c2282610be1565b602082019050919050565b60006020820190508181036000830152610c4681610c0a565b9050919050565b600060029050919050565b600081905092915050565b6000819050919050565b610c7681610582565b82525050565b6000610c888383610c6d565b60208301905092915050565b6000602082019050919050565b610caa81610c4d565b610cb48184610c58565b9250610cbf82610c63565b8060005b83811015610cf0578151610cd78782610c7c565b9650610ce283610c94565b925050600181019050610cc3565b505050505050565b600060029050919050565b600081905092915050565b6000819050919050565b600081905092915050565b610d2c81610c4d565b610d368184610d18565b9250610d4182610c63565b8060005b83811015610d72578151610d598782610c7c565b9650610d6483610c94565b925050600181019050610d45565b505050505050565b6000610d868383610d23565b60408301905092915050565b6000602082019050919050565b610da881610cf8565b610db28184610d03565b9250610dbd82610d0e565b8060005b83811015610dee578151610dd58782610d7a565b9650610de083610d92565b925050600181019050610dc1565b505050505050565b600060019050919050565b600081905092915050565b6000819050919050565b6000602082019050919050565b610e2c81610df6565b610e368184610e01565b9250610e4182610e0c565b8060005b83811015610e72578151610e598782610c7c565b9650610e6483610e16565b925050600181019050610e45565b505050505050565b600061012082019050610e906000830187610ca1565b610e9d6040830186610d9f565b610eaa60c0830185610ca1565b610eb8610100830184610e23565b95945050505050565b610eca81610a3c565b8114610ed557600080fd5b50565b600081519050610ee781610ec1565b92915050565b600060208284031215610f0357610f026105c0565b5b6000610f1184828501610ed8565b91505092915050565b7f496e76616c69642070726f6f6600000000000000000000000000000000000000600082015250565b6000610f50600d83610ac9565b9150610f5b82610f1a565b602082019050919050565b60006020820190508181036000830152610f7f81610f43565b905091905056fea264697066735822122010588c45757ec8c3f9487213f0efc2303c3975e79f84b21a4f3970460f40575964736f6c634300081c0033",
  "linkReferences": {},
  "deployedLinkReferences": {}
}